:1020000000800020DD2C0000C52C0000C52C000045
:1020100000000000000000000000000000000000C0
:10202000000000000000000000000000C52C0000BF
:102030000000000000000000C52C0000312D000051
:10204000C52C0000C52C0000C52C0000C52C0000CC
:10205000C52C0000C52C0000C52C0000C92C0000B8
:10206000C52C0000C52C0000C52C0000C52C0000AC
:10207000C52C0000C52C000089240000C52C0000E0
:10208000C52C0000C52C0000C52C0000C52C00008C
:1020900000000000C52C0000C52C0000C52C00006D
:1020A000C52C0000C52C0000C52C0000C52C00006C
:1020B0000000000010B5064C2378002B07D1054B1B
:1020C000002B02D0044800E000BF0123237010BDA4
:1020D000900000200000000044500000044B10B5A8
:1020E000002B03D00349044800E000BF10BDC046E8
:1020F00000000000940000204450000070470000E1
:1021000073B50121042001F001F80121042001F040
:1021100049F81F4C0025200000F026F901266B46E7
:102120001D715E71019A1B49200000F045F92900DC
:10213000042001F037F80621200000F046F83100B5
:10214000042001F02FF82900042001F02BF80221CF
:10215000200000F03AF82900200000F036F82900AD
:10216000200000F032F829002000802500F02DF832
:10217000ED0200212000013D00F027F8002DF8D1EC
:102180000121042001F00EF8200000F095F873BD45
:10219000AC000020001BB70070B506000C008D18C5
:1021A000AC4207D0336821789B6830009847207094
:1021B0000134F5E770BD7047704710B50400406802
:1021C00000F052FA0023237610BD10B5406800F0ED
:1021D00070FA10BDF8B5050040680C0000F064FA14
:1021E0002B68E7B2260A9B68012810D13900280025
:1021F000FF2798472B68BC4304439B6831002800A5
:102200009847030220003840184380B2F8BD3100DF
:1022100028009847FF262B680002344004439B683F
:10222000390028009847B4432043EEE710B5040076
:1022300000F00EFE200010BD10B54B1C0BD0102975
:1022400009D0EFF3108472B6102905DD022343761E
:10225000002C00D162B610BD0123427E1A434276A3
:1022600018224A430449891816228A569340C269A3
:102270001343C361ECE7C046904B00004B1C17D0E2
:10228000102915D0437E9B0712D4EFF3108272B64B
:1022900018234B430749C9180123897D49B28B4054
:1022A000C1699943C16100D14176002A00D162B66B
:1022B0007047C046904B0000437E002B05D09A0724
:1022C00004D5837E002B00D062B67047DB07FCD5B7
:1022D000C369024A9BB2D360F7E7C04600180040CA
:1022E000037E002B04D143768376C36101330376EA
:1022F000704700007FB5036902AE04000D00029133
:1023000072608B4203D1828AB3889A4226D0200021
:1023100006223100103002F02BFB606800F0BBF9A0
:102320007379E17A013B581E8341227B00936068F8
:10233000002300F055FA33790021013BDBB2022B78
:1023400001D8074AD15C074B2A009D4200D91A00E8
:10235000606800F071F9606800F093F97FBDC046D5
:10236000504B0000001BB70070B518260400FFF7A3
:10237000B7FF33000821207A0D4D4343EB1859561F
:1023800000F03CFF33000821A07A4343EB18595674
:1023900000F034FF0821607A4643AD19695600F019
:1023A0002DFF044B200006CBFFF7A4FF70BDC046F5
:1023B000904B0000EC00002007B5437E0091019295
:1023C000002B07D09A070AD5EFF310835A425341E6
:1023D000837672B60099019AFFF78CFF07BDDB0781
:1023E000F8D5C369014A9BB29360F3E70018004037
:1023F000F7B500240125194B194A5D711A601C714B
:10240000184B1948083301930360184B184F436069
:10241000184B194E038109233A00310045750461B8
:1024200004758372063B0476C472037302F0BCF930
:102430001248134B019A4360124B457503811B23CD
:102440003100026004613A0004758372183B04761F
:10245000C472037302F0A8F9F7BDC046EC00002077
:1024600000093D00544B0000AC0000204003002058
:10247000000000200A080000B9210000CC00002064
:10248000580300201D1A000010B5024800F04BFB55
:1024900010BDC046F400002013B51249124800F0E8
:1024A0003BF81249124800F037F81249124800F080
:1024B00033F81249124800F02FF81249124800F080
:1024C0002BF8124C1249200000F026F8012301934A
:1024D000023300930D220B3321000E4800F09CFACA
:1024E00013BDC0460008004238030020000C004223
:1024F0004003002000100042480300200014004266
:102500005003002000180042580300206003002000
:10251000001C0042F400002000230371016070479A
:102520009446F0B59E1E721E96416246056892075B
:102530002F6836063A4332432A60072505AC2478D3
:102540000068A4012940214342680024022B00D0E6
:102550005C03114321434160F0BD30B5C0250368E1
:10256000AD031C6812052A402243C0240904A402BA
:1025700021401143196003685A6814435C6030BD00
:102580000123026811680B43136003681A68D207BD
:10259000FCD4DA69D207F9D47047022302681168C3
:1025A0000B4313600268D3699B07FCD47047026831
:1025B000137E9B0702D40379002BF9D1002303710A
:1025C0007047002203685A8370470368187E4007EB
:1025D000C00F70470368187EC009704780230268E7
:1025E0005B42117E0B43137670470368588B80075C
:1025F000C00F704702230268518B0B43538370470F
:102600000368187EC007C00F70470368188DC0B2FA
:10261000704703681A7ED207FCD589B21985012359
:10262000037118007047012203689A7570470122F0
:1026300003681A757047000070B5012604684B08DE
:1026400033403140256809075B070B432B43236068
:1026500004685100034802F0B9F80138C0B2207391
:1026600070BDC046006CDC020123026811680B4398
:10267000136003681A68D207FCD4DA69D207F9D468
:1026800070470223026811680B4313600268D36924
:102690009B07FCD470470368DA699207FCD40221D7
:1026A0001A688A431A607047036818684000C00FB0
:1026B00070470268936A5B0A5B0219439162036880
:1026C0001A7E5207FCD5986AC0B270470368214A47
:1026D00030B593422FD0204A93422FD01F4A9342C5
:1026E0002FD01F4A93422FD01E4A93422FD01E4A0A
:1026F00093421FD10E2319220121032599401B4823
:10270000C024016099082B40AB40FC359D408900F6
:102710000918A4000859A843C0259D402B00034375
:102720000B518023DB011A43114B5A805A7852B265
:10273000002AFBDB30BD09231422DDE70A23152222
:10274000DAE70B231622D7E70C231722D4E70D2351
:102750001822D1E700080042000C0042001000429D
:102760000014004200180042001C004200E100E09A
:10277000000C0040F8B504000F0016001D00FFF724
:10278000A5FF2000FFF7FCFE1C21BB000B407107DA
:102790002268090C0B431360842322689375012F70
:1027A0001AD11021012E00D008390C4B694318684A
:1027B000C00002F00BF80722216802408B89520307
:1027C000DB04DB0C13438B81226803049089DB0C50
:1027D000400B400318439081F8BDC0460400002020
:1027E000F7B50600019308AB1F780D001400FFF742
:1027F0003BFF3000FFF76AFFC0222405920314401C
:10280000BA070C2717433C43C0270722BF022D04F9
:1028100033683D4025431D60019B316813401A0019
:1028200080239B0213434B60F7BD012070470000DB
:1028300010B50368014A1B6A984710BD13040000D5
:10284000FC30006A704787239B00C018C368802053
:102850004000C01A70470300FC331A6A002A03D0F4
:10286000DB69C018007D704701204042FBE710B5CE
:1028700004000069FFF784FE22000023FC3293610C
:10288000D361136287229200A4186360A360E3609F
:1028900010BD872310B59B00C218D368002BFCD154
:1028A0000069FFF784FE10BD0368002B02D162B6F9
:1028B000BFF36F8F7047F0200140303948424841E4
:1028C0007047F0231B011940802306209B0099428A
:1028D0000AD00133FF330130994205D080230238FA
:1028E0005B00994200D0002070470F20014000207B
:1028F000012903D00239481E8141481C704700005D
:102900008B23F0B5182685B002919B000400C05CB3
:10291000330008214343324D1700EB18595600F09D
:102920006DFC304B0821E05C33004343EB185956F3
:1029300000F064FC2C4BE25C0393022A09D11133B2
:10294000E05CFF2805D008214643AE19715600F01F
:1029500055FC8C26B600A05DFF2819D0012100F09F
:10296000D5FB1822A35D21495A43AB56AD18DB01B4
:1029700058188D21890060501D4901225B188E2155
:102980008900635069688A408F21890062501A600B
:102990000122029B11002069FFF7ECFE39002000A4
:1029A000FFF78FFF390005002000FFF79EFF390079
:1029B00006002000FFF77FFF330000902900206908
:1029C0000122FFF7ADFD0B4B2069E25C039BE15C4C
:1029D000FFF7C3FD2069FFF7E0FD05B0F0BDC0467D
:1029E000904B00002D0200002F020000184400410F
:1029F000144400412E020000802210B50400520051
:102A0000002101F0BEFF23000022FC335A602000A9
:102A10009A60DA6010BD0000F7B51D0008AB1B78A6
:102A20000400009309AB1B78160001930023436058
:102A3000FA239B008360114B0F00083303601430AE
:102A4000FFF7DAFF20002130FF30FFF7D5FF8B239F
:102A50006A469B002761E654094B1278E554094BFE
:102A60002000E2546A46084B1279E2548C22313B32
:102A7000FF3B9200A3541032A354FEBDF04E000061
:102A80002D0200002E0200002F020000F7B5EFF328
:102A9000108300930123019372B680260200FF2564
:102AA000019BFC327600013B5C1C0FD0D4685F1E9A
:102AB000B44209D054680155546801342C40546024
:102AC000D4680134D460EEE73B00EDE7684601933B
:102AD000FFF7EAFEF7BD13B5EFF310830093012370
:102AE000019372B6019B5A1E0192002B15D0030070
:102AF000FC33DA68002A0DD09A68845C9A68013247
:102B0000D2B29A60DA68013ADA606846FFF7CCFE22
:102B1000200016BD01246442F7E701246846FFF750
:102B2000C3FE6442F4E710B504000069FFF75DFDE1
:102B3000002805D02069FFF768FD2069FFF75AFDDE
:102B40002069FFF742FD00281BD02069FFF75DFDDB
:102B5000010020001430FFF799FF8C239B00E35CF9
:102B6000FF2B0ED02300FC331A6A80235B009B1AD4
:102B7000092B06DC8D238F229B009200E358A2587C
:102B80001A602069FFF73CFD00280ED087239B00C8
:102B9000E318DB68002B14D020002130FF30FFF752
:102BA0009AFFC1B22069FFF734FD2069FFF712FDDB
:102BB000002805D02069FFF711FD2069FFF701FD0E
:102BC00010BD2069FFF733FDEFE70000F8B5040002
:102BD00000690D00FFF714FD87239B00E61800280D
:102BE00002D0F368002B34D001278022F368520012
:102BF000934223D1EFF310833B4210D1174B5B6814
:102C0000DB05DB0DF1D0103B5BB2002B10DAF13AA3
:102C10001340083B9B08124A9B009B181B682069C5
:102C2000FFF7EEFC0028E0D02000FFF77CFFDCE798
:102C30009B08C0330B4A9B009B58F0E720002130D3
:102C4000FF302900FFF722FF2069FFF7ECFC01208D
:102C5000F8BD29002069FFF7DCFCF8E700ED00E093
:102C60001CED00E000E100E010B504001430FFF7B7
:102C700032FF8C239B00E35CFF2B0ED02300FC3340
:102C80001A6A80235B009B1A0A2B06DD8E238F2293
:102C90009B009200E358A2581A6010BDF7B50600D9
:102CA0000D000C008B180193019B671B9C4207D001
:102CB000336821781B683000984701340028F3D12D
:102CC0003800FEBDFEE70000034B10B51B68002B6B
:102CD00000D0984710BDC0466803002070B50F496A
:102CE0000F4CA14204D100F0B7F800F08DF8FEE7D8
:102CF0000C4D00238D42F6D0CA18E818A24205D325
:102D0000094B8242EFD00949002204E000680433F5
:102D10001060F1E704C38B42FCD3E4E7000000201D
:102D2000900000204850000090000020B0090020D2
:102D300010B500F066F8002801D100F057F810BD7A
:102D4000014B18607047C04668030020014B1868AB
:102D50007047C0466C030020F7B513480122844633
:102D60001249134C8E68636805689B0E13400192EC
:102D700088686268019F920E3A4067463F689342B6
:102D80000ED1BD420CD186420AD35B19FA254868A0
:102D9000AD00861B07486B437043000DC018FEBD95
:102DA0003D0013000600E3E76C03002010E000E0A4
:102DB00000ED00E05555000070B5041E10D0FFF77F
:102DC000CBFF050000F01CF8FFF7C6FF054B401BCA
:102DD0009842F7D9FA23013C9B00ED18002CF3D15F
:102DE00070BDC046E70300007047000010B5034AFD
:102DF00013680133136000F073FA10BD6C030020F8
:102E0000704700207047704710B500F0D5F801F00A
:102E100077FDFFF7F8FF0120FFF7CEFF084C2000F9
:102E200001F09CF9200000F0DFFBFFF769F9FFF7E4
:102E300065F9044B002BFAD000E000BFF7E7C0466D
:102E4000980300200000000010B501F07DFD10BDCA
:102E500010B501F083FD10BD1E2270B546484749EC
:102E6000436893431C3A1343436008238C6923430C
:102E70008B61434C434B9C829C8A14439C82DC684C
:102E80001442FCD00124404A14701578254203D026
:102E900055786DB2002DF8DB01249460547864B24B
:102EA000002CFBDB394C5460547864B2002CFBDB03
:102EB0008224E4015480547864B2002CFBDB0224A9
:102EC0009C840E34DD682542FCD0314CDC62102439
:102ED000DD682542FCD09D8C2E4C2C439C84102414
:102EE000DD682542FCD002249D8C80262C439C84E6
:102EF0004024DD683542FCD0DD682542F9D010243D
:102F0000DD682542FCD000249460547864B2002C23
:102F1000FBDB214C5460547864B2002CFBDB1C6A50
:102F20001E4D2C4080251C621C6AAC431C6203238E
:102F300093601B4B536053785BB2002BFBDB002389
:102F4000FF240B72174A4B728B72CB72164B1A60AE
:102F5000164B174A1B6811689A065B01C90E23407D
:102F6000520F12020B431343124A13858023426807
:102F70001343436070BDC046004000410004004060
:102F80000C06000000080040000C00400105010094
:102F9000B905FF7D040A000000070300FFFCFFFFE6
:102FA00003060100006CDC020400002024608000A5
:102FB0002060800000400042FA21314B10B51868B3
:102FC000890001F003FC2F4B0138984256D82E4956
:102FD0002E4A4860C020136A00061B021B0A0343E6
:102FE0001362002407238C600B608021136A09069A
:102FF0001B021B0A0B431362FC22254B196A0A436E
:103000001A62FC22196A92010A431A62A022196A02
:10301000D2020A431A62E0B20021013400F076F8CD
:10302000162CF8D11B4B1C005A7852B2002AFBDB3D
:10303000194A5A80194B1A00597EC9090129FBD037
:10304000E421C90099803F21D970537EDB09012B0F
:10305000FBD0C02300205B011361907000F024F8C6
:1030600063785BB2002BFBDB0D4B0E4A6380D37998
:10307000DB09012BFBD04123537010BDFEE7C04696
:1030800004000020FFFFFF0010E000E000ED00E082
:1030900000040040000C00401E40000000400042C0
:1030A0002140000000480042164A00B51300517E3E
:1030B000C9090129FBD00138042816D81969124A18
:1030C0000A400F211A615A788A4301F075FB030800
:1030D000060B0300110001220A435A7000BD1100C3
:1030E0000322F9E711000222F6E7F02311691B051C
:1030F0000B430F21136153788B43190002230B43B9
:103100005370EBE700400042FFFFFFF0182330B59B
:103110001D00040045430820204A55192856013057
:1031200014D0032912D808006343D156D31801F0F4
:1031300043FB02280E1B5868CB010221184A9B183A
:103140001A1840321170012282405A6030BD58680E
:10315000CB010621124A9B181A1840321170012225
:1031600082405A609A61F1E75868CB0106210C4A07
:103170009B181A1840321170012282405A605A611D
:10318000E4E75868CB010221054A9B181A1840321F
:103190001170012282409A60D8E7C046904B00002F
:1031A000004400411823F0B508245843114A13186D
:1031B0001C5701341BD0012635005F688356BD4083
:1031C0000D4ADB019A18906805420BD10C00601E75
:1031D0008441D2194032107834400336A400B04301
:1031E00020431070044A9B18002901D15D61F0BD95
:1031F0009D61FCE7904B00000044004118224243CF
:10320000F8B52C4E0300B218127A52B214000132F3
:103210000ED0481C00240C280AD801F0CDFA072053
:10322000202020202020200B0B0B0B0001246442C7
:103230002000F8BD092905D10021D8B2FFF766FFAB
:103240000024F5E70A2902D1D8B20839F6E70024AC
:103250000B29EDD1D8B20A39FFF758FFE8E718205B
:103260004343F2185568F3562C00134ADB016E08ED
:1032700017389B18C9B204409E19002C0DD00F249A
:1032800030363278090122401143C9B25B193170DE
:1032900040331A7810431870D2E732000F273032CB
:1032A00016785B19BE433143117040331A781043CE
:1032B0001870BDE7904B00000044004110B50400B9
:1032C000FFF792FD014B1C6010BDC04608000020B6
:1032D0000122024B52421A607047C046080000208B
:1032E000164A10B51368591C26D0013B1360002BF9
:1032F00022D172B6124B134A0433934213D9124AA5
:1033000001211000147D0C42FCD02021148BFF31D0
:103310009B085B0021431183D3610C4B1380012375
:10332000027D1A42FCD0BFF34F8F094B094ADA6085
:10333000BFF34F8FC046FDE710BDC0460800002018
:1033400000200000030200000040004102A5FFFF32
:1033500000ED00E00400FA05704710B50400FFF727
:1033600077FD200010BD0000F0B5822919D1C3B24D
:10337000294D5A01AA189169284C80010C40C0219E
:103380008905214391612649083340187021506115
:1033900028685B011A5C8A43110030220A431A54E0
:1033A000F0BD0029FCD1C026C1B21B4C4B01E31873
:1033B0009A681A4DB6052A4032439A60194A80012C
:1033C00082185A600A000727246808325201115DEA
:1033D000B9430F000121394311559F6910493D4000
:1033E00040182E439E6158617020115D8143080092
:1033F00010210143115599680B48A21808408021FB
:103400004903014399609968890B890399604023B6
:1034100011790B431371C3E750080020FFFFFF8FA2
:10342000C403002084050020FF3F00F0EFF3108369
:1034300003600123436072B6704773B5836D040067
:10344000002B1BD10600A83635786846FFF7EEFF43
:10345000019BEDB2013B02D33578EDB2FAE7684645
:103460000193FFF721FA002D01D1002076BD230042
:10347000A4331868A0342368C01AF7E76846FFF73A
:10348000D5FF22000025019BF432013B02D31578C1
:10349000EDB2FAE768460193FFF706FA002DE4D093
:1034A0002300F0331868EC34E5E7000010B5436DF5
:1034B0004468DBB25A01A2189168094808330840F1
:1034C000802149030143916091685B01890B890365
:1034D00091602268D318402219790A431A7110BDED
:1034E000FF3F00F0F7B5436D4268DBB219000400FE
:1034F0000831106849014118C979C90711D55B0124
:10350000D21893689B049B0C0CD12000FFF7CEFFD0
:1035100063681A68636DDBB208335B01D3187F22DE
:10352000DA71F7BDE16D002923D12100A4310B60D0
:1035300023000125AC33E56568465360FFF776FF4D
:10354000260020002100019BA836013BF430F53114
:103550005A1C33D0357002785F1ED2B20A700A78D6
:10356000002A04D120000193FFF7A0FFE8E73B0009
:10357000EEE72100F0310B600023E36523006033A8
:1035800053606846FFF752FF012526002000210006
:10359000019BF436013BA830F5315A1C0ED0357032
:1035A00002785F1ED2B20A700A78002A04D1200085
:1035B0000193FFF77BFFE8E73B00EEE768460193E6
:1035C000FFF772F9A4E737B56B46DC1D00230D0049
:1035D000237000F0E3FE210000F06EFE2B68181847
:1035E000286020783EBD00000078002810D001211E
:1035F000084B1B681A898A431A810822198B0A43CF
:103600001A830422198B0A431A830022024B1A6080
:103610007047C046500800204808002010B50F4AE7
:1036200093699B0B9B03936113680222FF331A7209
:103630009879823A02439A711A7A9207FCD57F24CC
:10364000074A2140937A0800A343190080230143CD
:103650009172917A5B420B43937210BD5008002027
:103660000050004110B50C0000F098FE210000F061
:1036700056FE002804D1034A93699B0B9B03936178
:1036800010BDC04650080020F8B50D00832A19D19E
:10369000CBB23B4C5A01A21891693A48AD0108409F
:1036A000C021890501439161374920686D18702157
:1036B000083355615B011A5C8A43110040220A43BA
:1036C0001A54F8BD022A55D1304A8B009858002868
:1036D00002D003685B699847F820FFF7B5FB040048
:1036E000274E2B4B4660036040220021083001F03A
:1036F00048F922000023A032A3646565E3642365D2
:10370000A365E3655360D3641372136013654C3291
:1037100013725372FF222B001340590171188868ED
:10372000184F08330740C020800538438860306850
:1037300007265B01195CAD00B1430E000321314344
:1037400019542300616D60681140490141186033CC
:103750004B60616D63680A401B6852019B1801222F
:10376000FF33997A20000A439A72FFF79FFE074BB6
:103770005C51A6E711002800FFF7F6FDA1E7C0465F
:1037800050080020FFFFFF8FC40300209C0300208F
:103790002C4F000070B505000124064BA200D25842
:1037A000002A06D0210028000134FFF76DFF0A2C03
:1037B000F3D170BD700300200B4BCAB20B488901D6
:1037C000C9185301C318596199690832890B8903D3
:1037D0009961036852019A180223D3715179823B8F
:1037E0000B4353717047C046C403002050080020AB
:1037F000084B8A00D05810B5002803D003689B6896
:10380000984710BDC9B2044B490159188868800413
:10381000800CF6E79C0300205008002010B50C0037
:10382000FFF7E6FF00280CD0064BE4B21B68083413
:1038300064011C19802362795B4213436371022384
:10384000E37110BD50080020F0B51C002A4B85B074
:103850001B6807000D000292002B4AD0274B8A00FC
:10386000D058002808D0036822005B680299984766
:103870000400200005B0F0BD3800FFF7B9FF844216
:1038800004D929003800FFF7B3FF04000121EBB28F
:103890001B4E03935B010193F21893689B0B9B03F0
:1038A0009360019A336802989B18FF335A7A0A434F
:1038B0005A72144BA901C918220001F059F8002CC2
:1038C000D7D029003800FFF793FF0028D1D140213D
:1038D000039B326808335B01D318187901431971CF
:1038E0000121D971019BD318FF339A7A0A439A7246
:1038F000BFE701246442BCE7480800209C03002085
:10390000500800208405002013B56B46DC1D220002
:103910000123FFF799FF012801D1207816BD01206E
:103920004042FBE770B5CBB2124A13485C018901F3
:103930008918021951609168104D08330D4080219B
:1039400049032943402591609168890B890391605F
:1039500001685A018A1816793543157195796D06F3
:10396000FCD55B01C918CB79DB07FCD50019806851
:10397000C0B270BD8405002050080020FF3F00F059
:1039800070B50D0000211400FFF7CCFFA04200D954
:10399000200000230349A34203D0CA5CEA54013348
:1039A000F9E770BD84050020F0B51E003A4B85B0E4
:1039B0001B680F000192002B35D08023DB019E4253
:1039C00031D80025354B8A01D3180293002E2CD014
:1039D000334B1B680393FF233B401C0000930834C8
:1039E000039B64011C19A379DB0921D02D4B2E49BF
:1039F000186800F0EBFE2D4B1721584300F0E6FE4F
:103A00002B4BE279920713D4DA5D002A01D10138F9
:103A1000F7D20122DA55009B5A01214B9B189A6973
:103A2000920B92039A6101256D42280005B0F0BD0A
:103A300000221F4B3400DA553F2E09D9009B402449
:103A40005A01174B9B188022996912060A439A6102
:103A500022000199029800F08BFF009BA1045A01FB
:103A60000F4B890C9B18029A2D195A619A69361BC3
:103A7000920B92030A439A61009B039A08335B01FD
:103A8000D3180222DA715979823A0A435A71019B9A
:103A90001B1901939AE7C04648080020C403002080
:103AA000500800200400002040420F007011010067
:103AB000B903002070B50D001C000D4BAE01F618C7
:103AC00011003000220000F053FFEDB209496D01F2
:103AD0004D196E61AB69084A20001340AB61AB69B8
:103AE000A2049B0B920C9B031343AB6170BDC046B9
:103AF000C403002050080020FF3F00F0F7B5104B32
:103B000001901B780F001500002B0CD10D4B1600F7
:103B10001C78002C09D00C4E0C48348820186419ED
:103B200000F026FF34802800FEBD002EFBD03A199D
:103B3000330000210198FFF7BDFF2418361AF4E77F
:103B400044070020450800204608002045070020C3
:103B5000F8B50F0016000024012A26D9100000F045
:103B6000F3FE0500380000F0CFFF032302220130EE
:103B7000400028706B7096420DD9397800290AD020
:103B8000531CDBB20137A9549E4203D00232EC54DD
:103B9000D2B2F0E7320029000548FFF7AFFF441E1C
:103BA000A041C4B2280000F0D9FE2000F8BDC046F4
:103BB00098030020F0B50024012685B0184B0F00B3
:103BC00069461E7005000094FFF7FDFC154B01A926
:103BD0000B806A3BFF3BCB715A330B72009B8C719D
:103BE00009334B800E4B4E7108711C703A00092F3F
:103BF0000FD00D4F09223E700C4E280000943480E7
:103C0000FFF77CFF69462800FFF7DDFC3288084992
:103C10003C702800FFF772FF012005B0F0BDC046E0
:103C20004407002009020000450800204608002043
:103C30004507002070B5CE7892B005000C00022E2A
:103C40000BD18B79C9792C4809021943FFF7B2FFD0
:103C5000411E8841C0B212B070BD00F09FFB210030
:103C600000F03EFB002803D0C117081AC00FF2E78E
:103C7000012E0ED1E279A37912021A431F49112AAB
:103C800013D8D2B2002A10D02800FFF737FF012046
:103C9000E1E7032EDFD1A378002B08D1E279A379E5
:103CA00012021A431649032AEBD90A78ECE7022BD1
:103CB00008D1E279A379120212491A432800FFF7CA
:103CC00047FFC8E7012B05D1E279A37912021A4315
:103CD0000D49F3E7032BBED14122010001A800F0FA
:103CE00050FE00F05BFB01A900F00AFBE279A3792A
:103CF00012021A4301A9E1E798030020684F00006F
:103D0000584F0000484F00005C4F0000CBB2044900
:103D10005B01C9188B699B0B9B038B617047C04685
:103D20005008002037B5050048780C000B2810D843
:103D300000F042FD061B0F2B0F404561494C5A5DB8
:103D4000097801AA002906D1022311802800FFF773
:103D5000B1FE01203EBD00231380284B1B78012BB0
:103D600000D1137002230021F0E78A780023012A92
:103D700003D101AA1380224BF0E7204A1370214A95
:103D800093699B0B9B039361E3E78C78012C06D12D
:103D900000211B4B01AA1C7011702300D6E70120E3
:103DA000002CD7D1154B174A187093699B0B9B03B6
:103DB0009361CFE789782800FFF730FCC9E7280036
:103DC000FFF738FFC6E701230F4ACCE70B78002046
:103DD000DB06BFD12800FFF7DDFCA2780A4B0B48B9
:103DE0001A6000F0BFFCCAE70123094ABBE78A78E2
:103DF000074B1A60C3E70020ACE7C046B8030020B9
:103E0000C00300205008002048080020640900205A
:103E10004C0800203A4BF7B51E780500002E5FD104
:103E2000384C23689A8B12070DD5082231009A83EB
:103E30003000FFF799FA10222368FF33997A0A437A
:103E40009A72314B1E6023689A8B520701D5042267
:103E50009A83FF331A7A920603D52022597A0A43AD
:103E60005A721A7AD20623D569460800274AC0CA70
:103E7000C0C0A268920B9203A2604022587902430C
:103E80005A7160230A7828001A422AD1FFF74AFFA4
:103E90002368FF33002827D08022997952420A43B1
:103EA0009A711A7A520603D54022597A0A435A72F5
:103EB0007F2601252368FF331E722F0023680837F1
:103EC0007F01DB19DB79002B07D0114BAA00D058FA
:103ED00000280DD003681B6898470135082DECD1E8
:103EE000F7BDFFF7BFFBD3E720210A4A9171D8E75E
:103EF0002900094800F007FC2368DF19FE71ECE790
:103F000045080020500800204808002084050020B3
:103F10009C030020FF5000416409002010B50248B6
:103F2000FFF778FF10BDC0469803002080235B0098
:103F30000380002343600733037270478300014806
:103F4000C018704770030020836C402B09D03F22BB
:103F5000036CC154036C013313400364836C01335D
:103F600083647047F7B505006846FFF75FFA0026DF
:103F70004022019B013B02D32E6D961BFAE7684657
:103F80000193FEF791FCAB6D6846002B4FD1FFF714
:103F90004DFA2900019BA831013B5A1C0CD00C782A
:103FA0005A1EE4B2002C05D168460193FEF77CFC52
:103FB0002000FEBD1300F0E7684601930024FEF7E1
:103FC00073FC2A002900A0321368A431B4420ED039
:103FD000086898420BD92800591CEB18116060330F
:103FE00019780830C9B2FFF7AFFF0134E9E7096873
:103FF0009942DDD1002313600133AB656846FFF7BA
:1040000015FA2F002A000021019BA837013BF53249
:10401000581CC9D0397010785E1E002805D0117068
:1040200028000193FFF742FAEBE73300F0E7FFF7D0
:10403000FDF92900019BF431013B5A1C06D00C7894
:104040005A1EE4B2002CAFD01300F6E76846019385
:104050000024FEF729FC2A002900EC321368F03115
:10406000B44202D0086898421DD8096899429FD18D
:10407000002368461360AB65FFF7D8F92F002A00CC
:104080000021019BF437013BF532581C00D18BE72E
:10409000397010785E1E002811D01170280001932D
:1040A000FFF704FAEAE72800591CEB181160AC335B
:1040B00019780830C9B2FFF747FF0134CBE7330066
:1040C000E3E710B50400FFF74DFF206D10BD10B5FC
:1040D0000400FFF747FF236D002B03D0E36CE418C7
:1040E000207A10BD01204042FBE7F7B517000E0013
:1040F0000400FFF737FF6846FFF798F93F220025D5
:104100009446019B013B5A1C19D0BD4215D2226D29
:10411000002A12D00121226D4942002A0AD06046AD
:10412000E26CA218117AE26C01320240E264226D64
:10413000013A226571550135E7E7013BE3E768463F
:104140000193FEF7B1FB2800FEBD0000014B024ABF
:104150001A60704750080020005000412023F7B536
:10416000474A0500D1690F200B43D361012245491D
:104170000B7813430B70444B197881431970062157
:104180001C782143197041490C7822430A701A782F
:1041900002401A70602219780A431A703C4B3D4A5B
:1041A0005A805F78FF09FCD13B48FEF7C9FD012327
:1041B0003A4C3B4E2268300011780B43137080223A
:1041C0003900520000F0DDFB22689378DB07FCD455
:1041D00056621F26334B1B68590B980C9B013140CC
:1041E00030405B0FB14200D105211F2800D10238B9
:1041F000072B00D1043B31408901178D01912A49D9
:1042000030400F40019939431185118D0700B143AA
:10421000080038431085118D1803244B7F260B406E
:1042200003430C2013850823D17881430B430321DA
:10423000D3702268D3788B4301390B43D370226843
:1042400013783340137004232268167833431370B5
:104250002268C1241389A40083431548138103599C
:104260001B021B0A03518023036013781148194372
:10427000012311702B70002100F0E0F8F7BDC0465B
:1042800000040040584400413C440041594400416E
:10429000000C0040064000001D3F000050080020B8
:1042A00054080020246080003FF8FFFFFF8FFFFFCD
:1042B00000E100E06409002070B50E0000254468AC
:1042C000002C0BD0236831005B6820009847002841
:1042D00002DB2D18E468F3E701256D42280070BD6C
:1042E00070B50D004468002C08D0236829009B6835
:1042F00020009847002802D1E468F4E7200070BD50
:1043000070B50D004468002C07D0236829002000F8
:10431000DB689847E4682D18F5E72C7070BD70B520
:104320000D004468002C08D0236829001B68200079
:104330009847002802D1E468F4E7200070BDF8B582
:1043400042788B790D00017A9B18040000208B4283
:1043500022DC6368834219D16560002623786A7184
:10436000EA792B719B182370AB79B34213D9AB68F0
:10437000B7006078DF19FFF7E1FD3B6801360360A5
:104380006378F6B201336370EEE70B00D968002959
:10439000FBD1DD60E1E70120F8BD000070B501262A
:1043A000054D064C2B68334203D12000FFF7BEFDBC
:1043B0002E60200070BDC04654090020580900201E
:1043C0000020704770B50F26CB1D01390200324026
:1043D000D5B22C0000093034092A00DD07341C70E6
:1043E000013B8B42F2D170BD10B50C000B4B18682D
:1043F000FFF7E8FF21000A4B08311868FFF7E2FFDA
:104400002100084B10311868FFF7DCFF2100064B34
:1044100018311868FFF7D6FF202010BD0CA08000CF
:1044200040A0800044A0800048A0800008B4024B57
:104430009C46103808BC6047E9430000704770474D
:104440003F20704713B56B460268D9710733546833
:1044500019000122A04716BD70B50A260B7892B04C
:104460006E44023305000B703C220021300000F046
:1044700088FA394801AC0690384824210790062074
:1044800020776846364AA1742281364A364BA2818B
:10449000FD3AFF3A8018C177684623390630C17764
:1044A00068460730C17702A8C1770720F277032654
:1044B00008316944C87703A9CE7710212B366E44A2
:1044C0003170092621851F3169440E700CA9053E03
:1044D0000E7033212380022369440B7006360DA928
:1044E0000E7022493536A1863B216E44307010A8EB
:1044F0006274E27702703D3269446A440B70137053
:1045000040210022E37023716371A37341336B4434
:10451000218719705A702B7DC039A370A3726377FD
:104520000133DBB2A3776A7D0B200D00684415438D
:10453000C5773120684403703A23501C6B441870CF
:10454000412302320A436B441A7021004222084878
:10455000FFF7D4FA12B070BD10010424020605243E
:104560000904000001020000080B0000070500001C
:104570009803002008B4024B9C46103808BC6047E2
:1045800059440000F8B5027D0B7904000D000027A6
:104590009A420CD10B784E78A12B0AD1212E06D14C
:1045A0000100072234311C48FFF7A8FA0137380010
:1045B000F8BD212BFBD1202E23D10100072234315D
:1045C0001548FFF7DDF99623626BDB009A421FD195
:1045D0003B342378DB071BD4FA20FEF76FFE002163
:1045E0000D48FFF793FB0127232EE0D1EB78AA7843
:1045F0001B021343094A002107481360FFF786FB9B
:10460000D5E7222EEFD103008A783B331A70DAE720
:10461000FEF75EFEE3E7C046980300200C00002092
:1046200008B4024B9C46103808BC60478545000022
:1046300010B534300822002100F0A3F910BD0000AD
:1046400010B5417D006A0131FFF7D2F8034B1B68BA
:1046500001335A1E9341181810BDC04610000020A7
:1046600010B5417D006A0231FFF7D8F810BD10B5D2
:10467000417D006A0231FFF79FF810BD70B50D0053
:10468000417D0400130002312A00006AFFF78CF913
:10469000002801D10123636070BD000010B5054CF6
:1046A00023685A1C04D103685B69984703002060A3
:1046B000180010BD10000020074A0300106810B554
:1046C000411C03D001235B42136010BD597D186A61
:1046D0000131FFF719F9F8E71000002070B5050067
:1046E000FEF734FBF423FF330024984207D93B350F
:1046F0002C780A20631E9C41E4B2FEF75DFB20008B
:1047000070BD002070477047FA239B0010B583608E
:10471000114B0022C3820300283383610F4B040036
:104720004260C2611800503323610830631D21626A
:104730002060DA770A4A2F3303CA03C38323A362B4
:10474000813BE36280332363FFF728FE21001031B1
:10475000FFF7F5FD200010BD03020000844F0000AC
:104760007C4F0000022110B5094B1A68437D5B01A4
:10477000D318FF339C7A21439972437D0133DBB216
:104780005B01D3180122FF33997A0A439A7210BD54
:104790005008002010B502490248FFF7B5FF10BDD0
:1047A00098030020640900200B0010B501001800D8
:1047B00000F098F810BD000002B4714649084900A5
:1047C000095C49008E4402BC7047C0460022430881
:1047D0008B4274D303098B425FD3030A8B4244D3C9
:1047E000030B8B4228D3030C8B420DD3FF2209020B
:1047F00012BA030C8B4202D31212090265D0030BCA
:104800008B4219D300E0090AC30B8B4201D3CB03BF
:10481000C01A5241830B8B4201D38B03C01A524101
:10482000430B8B4201D34B03C01A5241030B8B4203
:1048300001D30B03C01A5241C30A8B4201D3CB02EE
:10484000C01A5241830A8B4201D38B02C01A5241D3
:10485000430A8B4201D34B02C01A5241030A8B42D6
:1048600001D30B02C01A5241CDD2C3098B4201D3EE
:10487000CB01C01A524183098B4201D38B01C01A6C
:10488000524143098B4201D34B01C01A52410309E3
:104890008B4201D30B01C01A5241C3088B4201D392
:1048A000CB00C01A524183088B4201D38B00C01A3F
:1048B000524143088B4201D34B00C01A5241411A66
:1048C00000D20146524110467047FFE701B5002073
:1048D00000F006F802BDC0460029F7D076E7704721
:1048E0007047C04610B5040004481300002804D0E7
:1048F0000A000220210000E000BF10BD00000000FF
:1049000070B500260C4D0D4C641BA410A64209D1B5
:10491000002600F011F90A4D0A4C641BA410A642AF
:1049200005D170BDB300EB5898470136EEE7B300F0
:10493000EB5898470136F2E7780000207800002015
:10494000780000208C00002010B5034B010018688F
:1049500000F06AF810BDC0461400002010B5034BEB
:104960000100186800F016F810BDC04614000020C1
:10497000002310B59A4200D110BDCC5CC454013361
:10498000F8E703001218934200D170471970013301
:10499000F9E7000070B50500002910D00C1F23684E
:1049A000002B00DAE418280000F0B5F81D4A13685F
:1049B000002B05D163601460280000F0ADF870BDD5
:1049C000A34209D9216860188342F3D118685B6853
:1049D00041182160EEE713005A68002A01D0A24274
:1049E000F9D919685818A0420BD12068091858182D
:1049F00019608242E0D110685268411819605A600B
:104A0000DAE7A04202D90C232B60D5E721686018B1
:104A1000824203D1106852684118216062605C6074
:104A2000CAE7C046A0090020032370B5CD1C9D43F2
:104A3000083506000C2D1ED20C25A9421DD83000C9
:104A400000F069F8254A14682100002919D1244C86
:104A50002368002B03D1300000F044F820602900C7
:104A6000300000F03FF8431C2BD10C2330003360A2
:104A700000F052F803E0002DDFDA0C233360002051
:104A800070BD0B685B1B19D40B2B03D90B60CC18C2
:104A9000256003E04B688C420DD11360300000F0BC
:104AA0003BF8200007220B30231D9043C31AE7D0A8
:104AB0005A42E250E4E763600C00EFE70C004968FB
:104AC000C3E70323C41C9C43A042E1D0211A300059
:104AD00000F008F8431CDBD1C7E7C046A00900205E
:104AE000A4090020002370B5064C050008002360CF
:104AF00000F014F8431C03D12368002B00D02B6076
:104B000070BDC046AC0900200023C25C0133002AFE
:104B1000FBD1581E7047704770470000044A136865
:104B2000002B00D1034B1818106018007047C046C6
:104B3000A8090020B0090020F8B5C046F8BC08BCA0
:104B40009E467047F8B5C046F8BC08BC9E46704704
:104B5000010203000000000000000000B921000075
:104B60002D220000CB210000D5210000992100005A
:104B7000392200007D220000B9230000B922000084
:104B8000B7210000B721000069230000BB2100000D
:104B90000000000016000000080000001C000000DB
:104BA000FF000004000406000000000017000000E1
:104BB000080000001C000000FF00010401040700C1
:104BC000000000000A000000080000001C000000B7
:104BD000120000010001FF00000000000B000000B7
:104BE000080000001C000000130001010101FF008B
:104BF000010000000A000000080000001C00000086
:104C0000FF00000500050A00010000000B00000085
:104C1000080000001C000000FF00010501050B005A
:104C20000000000014000000080000002C0000003C
:104C3000FF00020002000400000000001500000058
:104C4000080000002C000000FF0003000300050026
:104C50000000000010000000020000001C00000026
:104C6000FF00000200020000000000001100000030
:104C70000200000004000000FF00FFFFFFFF010032
:104C80000000000013000000020000001C000000F3
:104C9000FF0001030103FF00000000000800000006
:104CA000030000001C0000001000000000001000C5
:104CB00000000000090000000300000004000000E4
:104CC0001100FFFFFFFFFF000100000017000000C0
:104CD0000300000004000000FF00FFFFFFFFFF00D3
:104CE00001000000160000000300000004000000A6
:104CF000FF00FFFFFFFFFF000000000002000000B8
:104D000001000000060000000000FFFFFFFFFF00A1
:104D1000010000000200000001000000040000008B
:104D20000A00FFFFFFFF0200010000000300000077
:104D300001000000040000000B00FFFFFFFF030064
:104D40000000000004000000010000001C00000042
:104D5000040000000000FF0000000000050000004B
:104D6000010000001C000000050001000100FF0020
:104D70000000000006000000010000000400000028
:104D80000600FFFFFFFFFF0000000000070000001B
:104D900001000000040000000700FFFFFFFFFF000C
:104DA00000000000180000000600000000000000E5
:104DB000FF00FFFFFFFFFF000000000019000000E0
:104DC0000600000000000000FF00FFFFFFFFFF00E3
:104DD00000000000120000000800000004000000B5
:104DE000FF00FFFFFFFFFF000000000003000000C6
:104DF0000800000004000000FF00FFFFFFFFFF00AD
:104E0000000000000C000000030000000000000093
:104E1000FF00FFFFFFFFFF00000000000D0000008B
:104E20000300000000000000FF00FFFFFFFFFF0085
:104E3000000000000E00000008000000000000005C
:104E4000FF00FFFFFFFFFF00000000000F00000059
:104E50000300000000000000FF00FFFFFFFFFF0055
:104E6000000000001B00000008000000000000001F
:104E7000FF00FFFFFFFFFF00000000001C0000001C
:104E80000800000000000000FF00FFFFFFFFFF0020
:104E90000100000008000000080000000000000001
:104EA000FF00FFFFFFFFFF000100000009000000FE
:104EB0000800000000000000FF00FFFFFFFF0900E6
:104EC00000000000000000000800000000000000DA
:104ED000FF00FFFFFFFFFF000000000001000000D7
:104EE0000800000000000000FF00FFFFFFFFFF00C0
:104EF0000000000000000000CD2B00009D2C0000F1
:104F0000472800009328000041280000692C000079
:104F10005728000031280000012900006F280000F8
:104F20002B2800000000000000000000E534000015
:104F3000EB400000C3400000CF40000059330000A8
:104F40005B3300003B34000041726475696E6F2072
:104F50004D4B523130303000040309044172647506
:104F6000696E6F204C4C430012010002EF020140B9
:104F700041234E80000101020301000000C2010034
:104F80000000080000000000000000004544000090
:104F90007D4600004144000061460000414600009B
:104FA000B94600009D4600003D4400003F4400001B
:104FB00031460000DD4600006F4600005944000005
:104FC000C143000085450000E9430000F0FFFFFFFA
:104FD0000000000021460000754500000347000066
:104FE0002D44000000000000000000000000000050
:104FF00000000000000000000000000000000000B1
:1050000000000000000000000000000000000000A0
:105010000000000000000000000000000000000090
:105020000000000000000000000000000000000080
:105030000000000000000000000000000000000070
:08504000000000000000000068
:105048000000000040420F00FFFFFFFFFFFFFFFFCF
:10505800FFFFFFFF180000200000000004500000C0
:1050680024500000E44F0000000000000000000091
:105078000000000000000000000000000000000028
:105088000000000000000000000000000000000018
:105098000000000000000000000000000000000008
:1050A80000000000000000000000000000000000F8
:1050B8000000000000000000DD200000F1230000D7
:1050C800992400004D41000095470000B5200000DC
:0400000300002CDDF0
:00000001FF
